{
  "transactions": [
    {
      "hash": "0xccde294ab06f8bb11d6c7d7d82dae199cad0c7f88d71604847a1ab9016e93fb2",
      "transactionType": "CALL",
      "contractName": null,
      "contractAddress": "0x8baac36f3e4e0627976f45537c65fe60c05ab0c4",
      "function": "uploadTraits(uint8,uint8[],(string,string)[])",
      "arguments": [
        "0",
        "[4]",
        "[(White, iVBORw0KGgoAAAANSUhEUgAAACAAAAAgBAMAAACBVGfHAAAAGFBMVEUAAAD///8AAADfvqfU1NSgoKCyjXMTERDoC1piAAAAAXRSTlMAQObYZgAAARNJREFUKM9VkbGKwzAQRE3+YIzSyxtL19uQfs2a6430AzK4TnX5/RvLTi43DAI9Zge0aqrEi1ykeekimIAe4s97DwdAoe1BegOIVB3aGjBTKHZo8DWQlAHaKdoKZtMrQCumOhGSZcVV0QGeYCqZjG4HRxDsdg9LyXQcO86EZSzldhe6rANbQ9ziOlbd49q3zWWR5QTDIntHym8AKEds/gDYgb2BOxL6kTCWJrR/wLH0P2gJDPEA3dGR9IwMoNiRTSG7OnUKT7ATU+XhTLmykBPXaXCOlBurEVMujSe+GyqQzHSac/J17ST0xFfK4/w5KSJR5GslqGQr2yNu/md8gXV4PuLon88TxHVgamTjKRHZiyr4BfrNU9BDNuzNAAAAAElFTkSuQmCC)]"
      ],
      "transaction": {
        "from": "0x7acf10b17d92a138219f7d33690327f5b0331563",
        "to": "0x8baac36f3e4e0627976f45537c65fe60c05ab0c4",
        "gas": "0x92e9d",
        "value": "0x0",
        "input": "0xd93ae3d90000000000000000000000000000000000000000000000000000000000000000000000000000000000000000000000000000000000000000000000000000006000000000000000000000000000000000000000000000000000000000000000a00000000000000000000000000000000000000000000000000000000000000001000000000000000000000000000000000000000000000000000000000000000400000000000000000000000000000000000000000000000000000000000000010000000000000000000000000000000000000000000000000000000000000020000000000000000000000000000000000000000000000000000000000000004000000000000000000000000000000000000000000000000000000000000000800000000000000000000000000000000000000000000000000000000000000005576869746500000000000000000000000000000000000000000000000000000000000000000000000000000000000000000000000000000000000000000001fc6956424f5277304b47676f414141414e5355684555674141414341414141416742414d414141434256476648414141414746424d564555414141442f2f2f38414141446676716655314e53676f4b43796a584d544552446f433170694141414141585253546c4d41514f62595a67414141524e4a524546554b4d39566b62474b777a41515245332b59497a537978744c313975516673326136343330417a4b34546e58352f52764c54693433444149395a676530617172456931796b65656b696d49416534733937447764416f65314265674f4956423361476a42544b485a6f384457516c4148614b646f4b5a744d725143756d4f6847535a635656305147655943715a6a473448527844736467394c795851634f3836455a537a6c6468653672414e6251397a694f6c6264343971337a57575235515444496e7448796d38414b4564732f674459676232424f784c366b5443574a72522f774c48305032674a44504541336447523949774d6f4e6952545347374f6e554b54374154552b5868544c6d796b4250586158434f6c42757245564d756a53652b477971517a485361632f4a31375354307846664b342f77354b534a523547736c7147517232794e752f6d64386758563450754c6f6e38385478485667616d546a4b52485a697972344266724e553942444e757a4e4141414141456c46546b5375516d434300000000",
        "nonce": "0x63",
        "chainId": "0x14a34"
      },
      "additionalContracts": [],
      "isFixedGasLimit": false
    },
    {
      "hash": "0x842580a689fb936620ad2015ebf49b4c824ea8a37f86edcab3e74c0023ac4bf3",
      "transactionType": "CALL",
      "contractName": null,
      "contractAddress": "0x8baac36f3e4e0627976f45537c65fe60c05ab0c4",
      "function": "uploadTraits(uint8,uint8[],(string,string)[])",
      "arguments": [
        "1",
        "[14]",
        "[(Red Cap, iVBORw0KGgoAAAANSUhEUgAAACAAAAAgBAMAAACBVGfHAAAAElBMVEUAAACxHRgAAACGIickUpkwY9MrfZpjAAAAAXRSTlMAQObYZgAAADtJREFUKM9jAAElCFBggAImY2VBQUEhQSGYgLKRoSAQKAoqUEuASUkJVUDFBQhcQ4EArgIBFBhGwcAAAGyiDXTUrjeJAAAAAElFTkSuQmCC)]"
      ],
      "transaction": {
        "from": "0x7acf10b17d92a138219f7d33690327f5b0331563",
        "to": "0x8baac36f3e4e0627976f45537c65fe60c05ab0c4",
        "gas": "0x4dfb9",
        "value": "0x0",
        "input": "0xd93ae3d90000000000000000000000000000000000000000000000000000000000000001000000000000000000000000000000000000000000000000000000000000006000000000000000000000000000000000000000000000000000000000000000a00000000000000000000000000000000000000000000000000000000000000001000000000000000000000000000000000000000000000000000000000000000e00000000000000000000000000000000000000000000000000000000000000010000000000000000000000000000000000000000000000000000000000000020000000000000000000000000000000000000000000000000000000000000004000000000000000000000000000000000000000000000000000000000000000800000000000000000000000000000000000000000000000000000000000000007526564204361700000000000000000000000000000000000000000000000000000000000000000000000000000000000000000000000000000000000000000d46956424f5277304b47676f414141414e5355684555674141414341414141416742414d41414143425647664841414141456c424d564555414141437848526741414143474969636b55706b7759394d72665a706a4141414141585253546c4d41514f62595a6741414144744a524546554b4d396a4141456c434642676741496d593256425155456851534759674c4b526f5341514b416f715545754153556b4a5655444642516863513445417267494246426847776341414147796944585455726a654a4141414141456c46546b5375516d4343000000000000000000000000",
        "nonce": "0x64",
        "chainId": "0x14a34"
      },
      "additionalContracts": [],
      "isFixedGasLimit": false
    },
    {
      "hash": "0xef4a8e5ebb606d84783480b74190866b99c5288166c064b00766a0a983d3d9d3",
      "transactionType": "CALL",
      "contractName": null,
      "contractAddress": "0x8baac36f3e4e0627976f45537c65fe60c05ab0c4",
      "function": "uploadTraits(uint8,uint8[],(string,string)[])",
      "arguments": [
        "3",
        "[0, 1, 3, 5, 25]",
        "[(Angry, iVBORw0KGgoAAAANSUhEUgAAACAAAAAgAQMAAABJtOi3AAAABlBMVEUAAAAAAAClZ7nPAAAAAXRSTlMAQObYZgAAABRJREFUCNdjIBcIOAAJjgYkLk0AAG9gASkMl47GAAAAAElFTkSuQmCC), (Basic Sun Protection, iVBORw0KGgoAAAANSUhEUgAAACAAAAAgAgMAAAAOFJJnAAAACVBMVEUAAAAAAAD///+D3c/SAAAAAXRSTlMAQObYZgAAACJJREFUGNNjoAdgDAUCMCsyIDIAzAgLCIMwRB1EHRgGLwAAHzIEnvQWWWQAAAAASUVORK5CYII=), (Bloodshot, iVBORw0KGgoAAAANSUhEUgAAACAAAAAgAgMAAAAOFJJnAAAADFBMVEUAAACxHRgAAAD////ZxzMJAAAAAXRSTlMAQObYZgAAABtJREFUGNNjoC/QYlgBYYg3xEEYog1hDIMYAADBZgKzhJLdVwAAAABJRU5ErkJggg==), (Cross Eyed, iVBORw0KGgoAAAANSUhEUgAAACAAAAAgAgMAAAAOFJJnAAAACVBMVEUAAAD///8AAABzxoNxAAAAAXRSTlMAQObYZgAAABpJREFUGNNjoAtgaliAJsLoEABlNExgGMQAANhaAsVGXr3gAAAAAElFTkSuQmCC), (Squint Left, iVBORw0KGgoAAAANSUhEUgAAACAAAAAgAgMAAAAOFJJnAAAACVBMVEUAAAAAAAD///+D3c/SAAAAAXRSTlMAQObYZgAAABZJREFUGNNjGCAg6hAKYag1zGIYxAAANOEB67hwr/gAAAAASUVORK5CYII=)]"
      ],
      "transaction": {
        "from": "0x7acf10b17d92a138219f7d33690327f5b0331563",
        "to": "0x8baac36f3e4e0627976f45537c65fe60c05ab0c4",
        "gas": "0x138b69",
        "value": "0x0",
        "input": "0xd93ae3d9000000000000000000000000000000000000000000000000000000000000000300000000000000000000000000000000000000000000000000000000000000600000000000000000000000000000000000000000000000000000000000000120000000000000000000000000000000000000000000000000000000000000000500000000000000000000000000000000000000000000000000000000000000000000000000000000000000000000000000000000000000000000000000000001000000000000000000000000000000000000000000000000000000000000000300000000000000000000000000000000000000000000000000000000000000050000000000000000000000000000000000000000000000000000000000000019000000000000000000000000000000000000000000000000000000000000000500000000000000000000000000000000000000000000000000000000000000a000000000000000000000000000000000000000000000000000000000000001e0000000000000000000000000000000000000000000000000000000000000034000000000000000000000000000000000000000000000000000000000000004a000000000000000000000000000000000000000000000000000000000000005e0000000000000000000000000000000000000000000000000000000000000004000000000000000000000000000000000000000000000000000000000000000800000000000000000000000000000000000000000000000000000000000000005416e67727900000000000000000000000000000000000000000000000000000000000000000000000000000000000000000000000000000000000000000000906956424f5277304b47676f414141414e5355684555674141414341414141416741514d414141424a744f693341414141426c424d56455541414141414141436c5a376e504141414141585253546c4d41514f62595a6741414142524a52454655434e646a494263494f41414a6a67596b4c6b30414147396741536b4d6c3437474141414141456c46546b5375516d43430000000000000000000000000000000000000000000000000000000000000000000000000000000000000000000000400000000000000000000000000000000000000000000000000000000000000080000000000000000000000000000000000000000000000000000000000000001442617369632053756e2050726f74656374696f6e00000000000000000000000000000000000000000000000000000000000000000000000000000000000000a86956424f5277304b47676f414141414e5355684555674141414341414141416741674d414141414f464a4a6e414141414356424d56455541414141414141442f2f2f2b4433632f534141414141585253546c4d41514f62595a67414141434a4a52454655474e4e6a6f416467444155434d437379494449417a41674c43494d7752423145485267474c774141487a49456e76515757575141414141415355564f524b35435949493d000000000000000000000000000000000000000000000000000000000000000000000000000000000000000000000000000000000000004000000000000000000000000000000000000000000000000000000000000000800000000000000000000000000000000000000000000000000000000000000009426c6f6f6473686f74000000000000000000000000000000000000000000000000000000000000000000000000000000000000000000000000000000000000a46956424f5277304b47676f414141414e5355684555674141414341414141416741674d414141414f464a4a6e414141414446424d5645554141414378485267414141442f2f2f2f5a787a4d4a4141414141585253546c4d41514f62595a6741414142744a52454655474e4e6a6f432f51596c674259596733784545596f67316844494d59414144425a674b7a684a4c64567741414141424a52553545726b4a6767673d3d0000000000000000000000000000000000000000000000000000000000000000000000000000000000000000000000000000000000000000000000400000000000000000000000000000000000000000000000000000000000000080000000000000000000000000000000000000000000000000000000000000000a43726f7373204579656400000000000000000000000000000000000000000000000000000000000000000000000000000000000000000000000000000000009c6956424f5277304b47676f414141414e5355684555674141414341414141416741674d414141414f464a4a6e414141414356424d564555414141442f2f2f38414141427a786f4e784141414141585253546c4d41514f62595a6741414142704a52454655474e4e6a6f417467616c69414a734c6f4541426c4e457867474d5141414e686141735647587233674141414141456c46546b5375516d43430000000000000000000000000000000000000000000000000000000000000000000000400000000000000000000000000000000000000000000000000000000000000080000000000000000000000000000000000000000000000000000000000000000b537175696e74204c65667400000000000000000000000000000000000000000000000000000000000000000000000000000000000000000000000000000000986956424f5277304b47676f414141414e5355684555674141414341414141416741674d414141414f464a4a6e414141414356424d56455541414141414141442f2f2f2b4433632f534141414141585253546c4d41514f62595a67414141425a4a52454655474e4e6a474341673668414b596167317a474959784141414e4f454236376877722f6741414141415355564f524b35435949493d0000000000000000",
        "nonce": "0x65",
        "chainId": "0x14a34"
      },
      "additionalContracts": [],
      "isFixedGasLimit": false
    },
    {
      "hash": "0x66996462edd71a1dbacbbb6d1a1d48f7e4104d94ef1333641f7c7d86f8f3d510",
      "transactionType": "CALL",
      "contractName": null,
      "contractAddress": "0x8baac36f3e4e0627976f45537c65fe60c05ab0c4",
      "function": "uploadTraits(uint8,uint8[],(string,string)[])",
      "arguments": [
        "5",
        "[11]",
        "[(Pipe, iVBORw0KGgoAAAANSUhEUgAAACAAAAAgAgMAAAAOFJJnAAAADFBMVEUAAAAAAAB3RkyUXFnbHKunAAAAAXRSTlMAQObYZgAAACNJREFUGNNjGLxAFMbIdgyAMsKXQBhZ/6AiUiuhalhDGGgCAECZBUzRP8rtAAAAAElFTkSuQmCC)]"
      ],
      "transaction": {
        "from": "0x7acf10b17d92a138219f7d33690327f5b0331563",
        "to": "0x8baac36f3e4e0627976f45537c65fe60c05ab0c4",
        "gas": "0x4a6a9",
        "value": "0x0",
        "input": "0xd93ae3d90000000000000000000000000000000000000000000000000000000000000005000000000000000000000000000000000000000000000000000000000000006000000000000000000000000000000000000000000000000000000000000000a00000000000000000000000000000000000000000000000000000000000000001000000000000000000000000000000000000000000000000000000000000000b00000000000000000000000000000000000000000000000000000000000000010000000000000000000000000000000000000000000000000000000000000020000000000000000000000000000000000000000000000000000000000000004000000000000000000000000000000000000000000000000000000000000000800000000000000000000000000000000000000000000000000000000000000004506970650000000000000000000000000000000000000000000000000000000000000000000000000000000000000000000000000000000000000000000000ac6956424f5277304b47676f414141414e5355684555674141414341414141416741674d414141414f464a4a6e414141414446424d564555414141414141414233526b795558466e62484b756e4141414141585253546c4d41514f62595a67414141434e4a52454655474e4e6a474c7841464d6249646779414d734b585142685a2f36416955697568616c6844474767434145435a42557a52503872744141414141456c46546b5375516d43430000000000000000000000000000000000000000",
        "nonce": "0x66",
        "chainId": "0x14a34"
      },
      "additionalContracts": [],
      "isFixedGasLimit": false
    },
    {
      "hash": "0x72d14cb0ad739d6ed5e09fb5dfb45393a39003f8bd0e552760df25bbc26d5649",
      "transactionType": "CALL",
      "contractName": null,
      "contractAddress": "0x8baac36f3e4e0627976f45537c65fe60c05ab0c4",
      "function": "uploadTraits(uint8,uint8[],(string,string)[])",
      "arguments": [
        "7",
        "[5]",
        "[(Frozen, iVBORw0KGgoAAAANSUhEUgAAACAAAAAgAgMAAAAOFJJnAAAADFBMVEUAAAAAxfCf3fkAAAAF6gJPAAAAAXRSTlMAQObYZgAAACRJREFUGNNjGJnAgZGBDUSzujIGSIEY1xpMF4BlpBrYFiApBABjtARoNgJwbQAAAABJRU5ErkJggg==)]"
      ],
      "transaction": {
        "from": "0x7acf10b17d92a138219f7d33690327f5b0331563",
        "to": "0x8baac36f3e4e0627976f45537c65fe60c05ab0c4",
        "gas": "0x4a713",
        "value": "0x0",
        "input": "0xd93ae3d90000000000000000000000000000000000000000000000000000000000000007000000000000000000000000000000000000000000000000000000000000006000000000000000000000000000000000000000000000000000000000000000a0000000000000000000000000000000000000000000000000000000000000000100000000000000000000000000000000000000000000000000000000000000050000000000000000000000000000000000000000000000000000000000000001000000000000000000000000000000000000000000000000000000000000002000000000000000000000000000000000000000000000000000000000000000400000000000000000000000000000000000000000000000000000000000000080000000000000000000000000000000000000000000000000000000000000000646726f7a656e000000000000000000000000000000000000000000000000000000000000000000000000000000000000000000000000000000000000000000b06956424f5277304b47676f414141414e5355684555674141414341414141416741674d414141414f464a4a6e414141414446424d56455541414141417866436633666b414141414636674a504141414141585253546c4d41514f62595a6741414143524a52454655474e4e6a474a6e41675a47424455537a756a4947534945593178704d4634426c70427259466941704241426a7441526f4e674a77625141414141424a52553545726b4a6767673d3d00000000000000000000000000000000",
        "nonce": "0x67",
        "chainId": "0x14a34"
      },
      "additionalContracts": [],
      "isFixedGasLimit": false
    }
  ],
  "receipts": [
    {
      "status": "0x1",
      "cumulativeGasUsed": "0x98e92b",
      "logs": [],
      "logsBloom": "0x00000000000000000000000000000000000000000000000000000000000000000000000000000000000000000000000000000000000000000000000000000000000000000000000000000000000000000000000000000000000000000000000000000000000000000000000000000000000000000000000000000000000000000000000000000000000000000000000000000000000000000000000000000000000000000000000000000000000000000000000000000000000000000000000000000000000000000000000000000000000000000000000000000000000000000000000000000000000000000000000000000000000000000000000000000000",
      "type": "0x2",
      "transactionHash": "0x842580a689fb936620ad2015ebf49b4c824ea8a37f86edcab3e74c0023ac4bf3",
      "transactionIndex": "0x28",
      "blockHash": "0x932a64a3685436d87c3fd4ba5040fc90a95222435429f6421099fd5c2f6b2125",
      "blockNumber": "0x20b0264",
      "gasUsed": "0x6a5ce",
      "effectiveGasPrice": "0x37a9f",
      "blobGasUsed": "0x29490",
      "from": "0x7acf10b17d92a138219f7d33690327f5b0331563",
      "to": "0x8baac36f3e4e0627976f45537c65fe60c05ab0c4",
      "contractAddress": null,
      "daFootprintGasScalar": "0x138",
      "l1BaseFeeScalar": "0x44d",
      "l1BlobBaseFee": "0x1",
      "l1BlobBaseFeeScalar": "0xa118b",
      "l1Fee": "0x51",
      "l1GasPrice": "0x9",
      "l1GasUsed": "0x21e2"
    },
    {
      "status": "0x1",
      "cumulativeGasUsed": "0x9c7080",
      "logs": [],
      "logsBloom": "0x00000000000000000000000000000000000000000000000000000000000000000000000000000000000000000000000000000000000000000000000000000000000000000000000000000000000000000000000000000000000000000000000000000000000000000000000000000000000000000000000000000000000000000000000000000000000000000000000000000000000000000000000000000000000000000000000000000000000000000000000000000000000000000000000000000000000000000000000000000000000000000000000000000000000000000000000000000000000000000000000000000000000000000000000000000000",
      "type": "0x2",
      "transactionHash": "0xccde294ab06f8bb11d6c7d7d82dae199cad0c7f88d71604847a1ab9016e93fb2",
      "transactionIndex": "0x29",
      "blockHash": "0x932a64a3685436d87c3fd4ba5040fc90a95222435429f6421099fd5c2f6b2125",
      "blockNumber": "0x20b0264",
      "gasUsed": "0x38755",
      "effectiveGasPrice": "0x37a9f",
      "blobGasUsed": "0x169f8",
      "from": "0x7acf10b17d92a138219f7d33690327f5b0331563",
      "to": "0x8baac36f3e4e0627976f45537c65fe60c05ab0c4",
      "contractAddress": null,
      "daFootprintGasScalar": "0x138",
      "l1BaseFeeScalar": "0x44d",
      "l1BlobBaseFee": "0x1",
      "l1BlobBaseFeeScalar": "0xa118b",
      "l1Fee": "0x51",
      "l1GasPrice": "0x9",
      "l1GasUsed": "0x129d"
    },
    {
      "status": "0x1",
      "cumulativeGasUsed": "0xa9cda3",
      "logs": [],
      "logsBloom": "0x00000000000000000000000000000000000000000000000000000000000000000000000000000000000000000000000000000000000000000000000000000000000000000000000000000000000000000000000000000000000000000000000000000000000000000000000000000000000000000000000000000000000000000000000000000000000000000000000000000000000000000000000000000000000000000000000000000000000000000000000000000000000000000000000000000000000000000000000000000000000000000000000000000000000000000000000000000000000000000000000000000000000000000000000000000000",
      "type": "0x2",
      "transactionHash": "0x66996462edd71a1dbacbbb6d1a1d48f7e4104d94ef1333641f7c7d86f8f3d510",
      "transactionIndex": "0x2a",
      "blockHash": "0x932a64a3685436d87c3fd4ba5040fc90a95222435429f6421099fd5c2f6b2125",
      "blockNumber": "0x20b0264",
      "gasUsed": "0xd5d23",
      "effectiveGasPrice": "0x37a9f",
      "blobGasUsed": "0x2ffd0",
      "from": "0x7acf10b17d92a138219f7d33690327f5b0331563",
      "to": "0x8baac36f3e4e0627976f45537c65fe60c05ab0c4",
      "contractAddress": null,
      "daFootprintGasScalar": "0x138",
      "l1BaseFeeScalar": "0x44d",
      "l1BlobBaseFee": "0x1",
      "l1BlobBaseFeeScalar": "0xa118b",
      "l1Fee": "0x51",
      "l1GasPrice": "0x9",
      "l1GasUsed": "0x276c"
    },
    {
      "status": "0x1",
      "cumulativeGasUsed": "0xacfbc4",
      "logs": [],
      "logsBloom": "0x00000000000000000000000000000000000000000000000000000000000000000000000000000000000000000000000000000000000000000000000000000000000000000000000000000000000000000000000000000000000000000000000000000000000000000000000000000000000000000000000000000000000000000000000000000000000000000000000000000000000000000000000000000000000000000000000000000000000000000000000000000000000000000000000000000000000000000000000000000000000000000000000000000000000000000000000000000000000000000000000000000000000000000000000000000000",
      "type": "0x2",
      "transactionHash": "0xef4a8e5ebb606d84783480b74190866b99c5288166c064b00766a0a983d3d9d3",
      "transactionIndex": "0x2b",
      "blockHash": "0x932a64a3685436d87c3fd4ba5040fc90a95222435429f6421099fd5c2f6b2125",
      "blockNumber": "0x20b0264",
      "gasUsed": "0x32e21",
      "effectiveGasPrice": "0x37a9f",
      "blobGasUsed": "0x142f8",
      "from": "0x7acf10b17d92a138219f7d33690327f5b0331563",
      "to": "0x8baac36f3e4e0627976f45537c65fe60c05ab0c4",
      "contractAddress": null,
      "daFootprintGasScalar": "0x138",
      "l1BaseFeeScalar": "0x44d",
      "l1BlobBaseFee": "0x1",
      "l1BlobBaseFeeScalar": "0xa118b",
      "l1Fee": "0x51",
      "l1GasPrice": "0x9",
      "l1GasUsed": "0x1093"
    },
    {
      "status": "0x1",
      "cumulativeGasUsed": "0xb02a2d",
      "logs": [],
      "logsBloom": "0x00000000000000000000000000000000000000000000000000000000000000000000000000000000000000000000000000000000000000000000000000000000000000000000000000000000000000000000000000000000000000000000000000000000000000000000000000000000000000000000000000000000000000000000000000000000000000000000000000000000000000000000000000000000000000000000000000000000000000000000000000000000000000000000000000000000000000000000000000000000000000000000000000000000000000000000000000000000000000000000000000000000000000000000000000000000",
      "type": "0x2",
      "transactionHash": "0x72d14cb0ad739d6ed5e09fb5dfb45393a39003f8bd0e552760df25bbc26d5649",
      "transactionIndex": "0x2c",
      "blockHash": "0x932a64a3685436d87c3fd4ba5040fc90a95222435429f6421099fd5c2f6b2125",
      "blockNumber": "0x20b0264",
      "gasUsed": "0x32e69",
      "effectiveGasPrice": "0x37a9f",
      "blobGasUsed": "0x14cb8",
      "from": "0x7acf10b17d92a138219f7d33690327f5b0331563",
      "to": "0x8baac36f3e4e0627976f45537c65fe60c05ab0c4",
      "contractAddress": null,
      "daFootprintGasScalar": "0x138",
      "l1BaseFeeScalar": "0x44d",
      "l1BlobBaseFee": "0x1",
      "l1BlobBaseFeeScalar": "0xa118b",
      "l1Fee": "0x51",
      "l1GasPrice": "0x9",
      "l1GasUsed": "0x1119"
    }
  ],
  "libraries": [],
  "pending": [],
  "returns": {},
  "timestamp": 1764320167459,
  "chain": 84532,
  "commit": null
}